:020000040800F2
:1000000020580024BD0200087D4B00081746000858
:10001000794B000885040008256E000800000000E8
:100020000000000000000000000000002D5100084A
:10003000A504000800000000FF4C00082F51000834
:10004000D7020008D7020008D7020008D70200082C
:10005000D7020008D7020008590E0008D70200088E
:100060006F0E0008790E0008D7020008D7020008BA
:10007000D7020008D7020008D7020008D7020008FC
:10008000D7020008D7020008D7020008D7020008EC
:10009000D7020008D7020008D7020008D7020008DC
:1000A000D7020008D7020008D7020008D7020008CC
:1000B000D70200083D530008D7020008D702000805
:1000C000D7020008D7020008D7020008D7020008AC
:1000D000D7020008016E0008D7020008D702000806
:1000E000630E0008D702000800000000D7020008D5
:1000F000D7020008D7020008D7020008D70200087C
:10010000D7020008D7020008D7020008D70200086B
:10011000D7020008D7020008D7020008D70200085B
:10012000D7020008D7020008D7020008D70200084B
:10013000D702000829070008D7020008D7020008E4
:1001400000000000000000000000000000000000AF
:10015000D7020008D7020008D7020008D70200081B
:10016000D7020008D7020008D7020008D70200080B
:10017000D7020008D7020008D702000800000000DC
:10018000D7020008D7020008D7020008D7020008EB
:10019000D7020008D7020008D7020008D7020008DB
:1001A000D7020008D7020008D7020008D7020008CB
:1001B000D7020008D7020008D7020008D7020008BB
:1001C000D7020008D7020008D7020008D7020008AB
:1001D000D7020008D7020008D7020008D70200089B
:1001E000D7020008D7020008D7020008D70200088B
:1001F000D7020008D7020008D7020008D70200087B
:10020000D7020008D7020008D7020008D70200086A
:10021000D7020008D7020008D7020008D70200085A
:10022000D7020008D7020008D7020008000000002B
:10023000D7020008D702000800000000D70200081B
:10024000D7020008D7020008D7020008D70200082A
:10025000D7020008D7020008D7020008D70200081A
:10026000D7020008D7020008D7020008D70200080A
:10027000D7020008D7020008D702000800000000DB
:10028000D7020008D7020008D702000800000000CB
:1002900000000000D7020008DFF80CD000F0E0F802
:1002A000004800470D8E00082058002430BF72B669
:1002B000704762B6704780F30888704706488047E9
:1002C00006480047FEE7FEE7FEE7FEE7FEE7FEE73B
:1002D000FEE7FEE7FEE7FEE731520008990200085C
:1002E0002DE9F05F0546002092469B46884606466B
:1002F000814640241BE0284641464746224600F0FE
:100300009EF853465A46C01A914110D311461846DA
:10031000224600F085F82D1A67EB01084F46224669
:100320000120002100F07CF817EB00094E41201E4F
:10033000A4F10104DFDC484631462A464346BDE8C5
:10034000F09F00000649074A0868504343F239020B
:100350001044086040087047014908607047000079
:10036000E40000246D4EC64110B5431A934209D2F1
:100370008318881803E010F8011D03F8011D521EB0
:10038000F9D210BD40EA01039B0703D009E008C978
:10039000121F08C0042AFAD203E011F8013B00F84A
:1003A000013B521EF9D210BDD2B201E000F8012B80
:1003B000491EFBD270470022F6E710B513460A46E5
:1003C00004461946FFF7F0FF204610BD421C10F806
:1003D000011B0029FBD1801A704730B5044600206C
:1003E000034600E05B1C934203D2E05CCD5C401B03
:1003F000F8D030BD30B50B46014600202022012444
:1004000009E021FA02F59D4205D303FA02F5491BE2
:1004100004FA02F52844151EA2F10102F1DC30BDF8
:10042000202A04DB203A00FA02F1002070479140B4
:10043000C2F1200320FA03F3194390407047202AA9
:1004400004DB203A21FA02F00021704721FA02F37E
:10045000D040C2F120029140084319467047000085
:10046000064C074D06E0E06840F0010394E8070001
:1004700098471034AC42F6D3FFF712FFE0DE0008D5
:1004800000DF000800BFFEE710B504F0EBFD04F04C
:100490009BFD0348006840F004000149086010BD5E
:1004A0009CEF00E0704710B5002210E002EB420420
:1004B000036903EBC40100230B604B608B60CB60CE
:1004C0000B614B6100F12C0343F82210521C042AEB
:1004D000ECD30024C46304644464C46484640324CB
:1004E000036803F58053C3F83041036803F5805374
:1004F0000469C3F81C41036903F5D863046804F573
:100500008054C4F8283110BD10B500220EE002EB73
:100510004204C36803EBC40100230B604B608B6093
:10052000CB6000F1180343F82210521C042AEED3CA
:10053000002484620324036803F58053C3F82C412C
:10054000036803F58053C468C3F81441036803F5D6
:100550008053C468C3F8204110BD000000B587B0C7
:1005600000BF6C48006840F001006A490860084616
:10057000006800F00100019000BF00BF00BF084606
:10058000006840F0040008600846006800F00400BD
:10059000019000BF00BF00BF0846006840F00100A6
:1005A00008600846006800F00100019000BF00BF2D
:1005B00000BF0846006840F0010008600846006877
:1005C00000F00100019000BF00BF00BF08460068B6
:1005D00040F0040008600846006800F00400019044
:1005E00000BF00BF00BF0846006840F0040008607C
:1005F0000846006800F00400019000BF00BF00BF83
:100600000846006840F0020008600846006800F0F4
:100610000200019000BF00BF00BF0846006840F024
:10062000400008600846006800F04000019000BFEC
:1006300000BF00BF0846006840F040000860084660
:10064000006800F04000019000BF00BFFFF72FFEE0
:100650000121072004F02BFB642006F073FD00212C
:10066000072004F024FB642006F06CFDFFF721FE58
:1006700004200290022005900390002004900B209B
:10068000069002A9244801F095FB022002900B205D
:10069000069002A9214801F08DFB022002900B2058
:1006A000069002A91C4801F085FB802002900B20D7
:1006B000069002A9184801F07DFB102002900B2043
:1006C000069002A9154801F075FB202002900B202E
:1006D000069002A9114801F06DFB4FF400600290F2
:1006E0000B20069002A90E4801F064FB4FF4005065
:1006F00002900B20069002A90A4801F05BFB4FF420
:10070000804002900B20069002A9064801F052FB9F
:1007100007B000BDE044025800000258000802582B
:10072000000402580018025810B508F037FB0248C0
:1007300000F0CCFE10BD00008C08002410B5A2B063
:10074000044601208DF83300002012908DF84100FE
:100750008DF8430001208DF828008DF856008DF8A3
:10076000320000208DF84C0001208DF884004003F9
:100770000F9000208DF85C0018908DF885008DF8A2
:1007800086004FF4C360169000208DF830000B9067
:1007900001208DF8350000208DF836008DF84000DE
:1007A0001D901B9014908DF864008DF87A00012044
:1007B0008DF842002020209001208DF84400002078
:1007C0008DF855004FF0405009904FF480400E9046
:1007D00000208DF8310002201F9000208DF8780055
:1007E0008DF879008DF8540001208DF83400002038
:1007F0001A9001208DF8700009A9204600F062FAD5
:1008000001208DF804000290002000908DF81C005B
:100810008DF80D008DF80C004FF4001006900020AC
:100820008DF814004FF40010049000208DF81D0086
:100830004FF4067008906946204600F0E5F922B0B2
:1008400010BD000070B506463068D0F8004224F4B0
:10085000706402F085FE05461348854205D31348AF
:10086000854202D244F400741AE01048854205D350
:100870000F48854202D244F4407411E00C4885428E
:1008800003D30C48854200D20AE00A48854205D3CA
:100890000948854202D244F4807401E044F4806443
:1008A0003068C0F8004270BD002D3101C00E160244
:1008B0000087930300E1F50580D1F0082DE9F047AA
:1008C00006460B46914606F118052A69D5F810C070
:1008D000002755F822109C68C86800F00040B0F16D
:1008E000004F02D10220BDE8F087187800F0040024
:1008F000C8B3C8686FF30F00D3F824A040EA0A0019
:10090000C860C86840F48030C8603068006E40F449
:100910008010D6F800A0CAF86000187800F008002F
:1009200008B3B3F82CA088686AF31F408860C868D1
:1009300040F40030C860C86820F44020D3F830A0EC
:1009400040EA0A00C8603068406E40F48010D6F873
:1009500000A0CAF864003068006D40F08060D6F8EE
:1009600000A0CAF85000187800F0100058B188684C
:100970006FF30D00D3F818A040EA0A008860C86839
:1009800040F08060C860187800F0040018B918784A
:1009900000F01000F0B1C86840F08040C860C8683E
:1009A00040F00040C86000BF521C042A00D3121F50
:1009B00000BF55F822107F1CC86800F00040B0F15D
:1009C000004F07D155F82C10C86820F00040C860CF
:1009D000022088E77F1C2068086088686FF30D009C
:1009E000D4F804A040EA0A008860A06868B1A4684E
:1009F000206848608868DFF80CA200EA0A00B4F8B2
:100A000004A040EA0A40886007E000204860886847
:100A1000DFF8F0A100EA0A008860187800F0100002
:100A2000A0B1C86820F4F000B3F820A040EACA40A2
:100A3000C860C8686FF31100D3F81CA040EA0A0030
:100A4000C860C86840F48020C8601FE0C8686FF3C1
:100A50000E00D3F804A040EA0A00C860187800F03D
:100A6000010038B1C86820F44030D3F814A040EA3F
:100A70000A00C860187800F0200038B1C86820F07B
:100A80004060D3F810A040EA0A00C860187800F06F
:100A9000040038B1886820F44040D3F828A040EA28
:100AA0000A008860C86840F00050C860C86820F03C
:100AB0008040C860C86840F00040C860187800F006
:100AC000020038B1C86820F06070D3F80CA040EA8A
:100AD0000A00C8607EE0C86820F08050C86000BF8F
:100AE000521C042A00D3121F00BF55F82210C868F8
:100AF00020F00050C860C86800F00040B0F1004F1E
:100B000017D1624655F822104FF000080DE0C86872
:100B100020F00040C86000BF521C042A00D3121FFE
:100B200000BF55F8221008F10108B845EFD30220A4
:100B3000D9E67F1CA4682068086088686FF30D0000
:100B4000D4F804A040EA0A008860A06868B1A468EC
:100B5000206848608868DFF8ACA000EA0A00B4F8B2
:100B600004A040EA0A40886007E0002048608868E6
:100B7000DFF890A000EA0A008860187800F0100002
:100B800060B1C8686FF31100D3F81CA040EA0A00F6
:100B9000C860C86840F48020C86013E0C8686FF37C
:100BA0000E00D3F804A040EA0A00C860187800F0EC
:100BB000010038B1C86820F44030D3F814A040EAEE
:100BC0000A00C860C86840F00040C860C86820F0EB
:100BD0008040C860A06800287FF47DAFB9F1000FA5
:100BE00004D0886840F00040886003E0886820F006
:100BF00000408860C86840F08050C8602A610020CA
:100C000071E60000FFFF00C010B5036803F58053D4
:100C10001B6847F60204A3430C682343046804F5E9
:100C2000805423600C798B6843EA04330C7B43EADD
:100C3000C432036803F580535B684DF20104A3439B
:100C40001343046804F5805463604C7B0B6A43EAE9
:100C50000442036803F58053D3F80031164C234057
:100C60001343046804F58054C4F800310C7D0B690B
:100C700043EA04134C7F43EA0432036803F58053CC
:100C8000D3F804310D4C23401343046804F5805419
:100C9000C4F804310C7F8B6943EAC472036803F51E
:100CA0008053D3F80831064C23401343046804F5FD
:100CB0008054C4F8083110BD00C0FEFFEFEFC0FF44
:100CC000FFFFC07F10B50C688B6823430C7943EAA3
:100CD000C4630C7B43EAC4534C7B43EA84538C7B50
:100CE00043EA4453CC7B43EA04530C7C0CB9012403
:100CF00000E0002443EAC4434C7C0CB9012400E02A
:100D0000002443EA44438C7C43EA04434C69234374
:100D10008C6923430C7F43EA04334C7F43EAC423AA
:100D20008C7F0CB9012400E0002443EA8423CC7FAB
:100D300043EA442391F820400CB9012400E0002448
:100D400043EA042351F8244F23430C7943EA041364
:100D50008C6843EA040203681B683D4C234013433C
:100D6000046823600B7E5B060C7D43EA04630C7B06
:100D700043EA84434C7B43EA44438C7B24390CB9DB
:100D8000012400E0002443EA04434C6B43EA0402DC
:100D900003685B682F4C234013430468636091F839
:100DA00040404B6C43EA04220368DB6840F20F14B6
:100DB000A34313430468E36091F854400B6D43EA86
:100DC000440391F84C400CB9012400E0002443EAAC
:100DD000C41331F8484F43EA044203681B6F4FF6CF
:100DE0000D7423401343046823678B7B4C7B43EAD9
:100DF00044020368D3F8903023F0030313430468DC
:100E0000C4F890300368D3F8003D23F072030C69F6
:100E100023430468C4F8003D0C7E4B6948390CB983
:100E2000012400E0002443EA841391F8614043EA7E
:100E3000041391F8624043EAC4020368D3F8303DDA
:100E400023F07B0313430468C4F8303D10BD000059
:100E5000838004000080F8C010B5012000F09CFFE2
:100E600010BD10B54FF4005000F096FF10BD10B546
:100E7000042000F091FF10BD10B5082000F08CFF99
:100E800010BD000070B504460CB9012070BD94F887
:100E90003500022803D0802060650120F6E79F49D5
:100EA0002068884249D09D4918312068884244D042
:100EB0009A493031206888423FD0984948312068AB
:100EC00088423AD0954960312068884235D09349AC
:100ED00078312068884230D090499031206888422B
:100EE0002BD08E49A8312068884226D08C492068B2
:100EF000884222D08A491831206888421DD088490A
:100F000030312068884218D08549483120688842AD
:100F100013D083496031206888420ED080497831EF
:100F20002068884209D07E4990312068884204D0E8
:100F30007B49A8312068884201D1012000E00020CF
:100F4000F0B3042084F835007449206888424BD0FF
:100F5000724918312068884246D070493031206883
:100F6000884241D06D494831206888423CD06B4965
:100F700060312068884237D06849783120688842DB
:100F800032D066499031206888422DD06349A8311B
:100F90002068884228D062492068884224D060496D
:100FA0001831206888421FD05D493031206888425E
:100FB0001AD05B4948312068884215D0584900E072
:100FC00020E06031206888420ED055497831206891
:100FD000884209D0524990312068884204D0504953
:100FE000A8312068884206D12068006820F00100FE
:100FF0002168086090E02068006820F00100216806
:10100000086089E02068006820F00E002168086010
:1010100042492068884249D04049183120688842B6
:1010200044D03E493031206888423FD03B49483166
:10103000206888423AD0394960312068884235D0EA
:10104000364978312068884230D034499031206860
:1010500088422BD03149A8312068884226D03049B7
:101060002068884222D02E491831206888421DD03D
:101070002B4930312068884218D0294948312068EE
:10108000884213D026496031206888420ED0244916
:1010900078312068884209D02149903120688842FF
:1010A00004D01F49A8312068884206D12068006812
:1010B00020F001002168086005E02068006820F049
:1010C000010021680860206E006820F48070216EA5
:1010D0000860A56D94F85C0000F01F0101208840B5
:1010E0006860D4E919104860E06E40B1E06E0068B5
:1010F00020F48070E16E0860D4E91C10486000BFE5
:10110000002084F8340000BF012084F83500206DF1
:1011100010B12046216D88470020B7E6100002403C
:101120001004024010B50446A0B206F00BF810BD42
:1011300070B5054605F12C02536952F823109669E3
:10114000906908B9012070BDD06900B1761C0024F7
:1011500023E0086908604FF08070C860486928B1D2
:1011600048698860C86840F00070C860C86840F08E
:101170000040C860106A18B1C86840F08040C8607C
:101180009069401EA04207D900BF5B1C042B00D30E
:101190001B1F00BF52F82310641CB442D9D3286827
:1011A00000F58050C0F828110020906100BFCAE708
:1011B000704730B504460D4604F12C0050F8251058
:1011C0000AB1042D02D30120E06530BD0A600A6136
:1011D000C86840F08070C8602BB18B604B61C868F4
:1011E00040F00070C860C86840F00040C86000204F
:1011F000EBE77047024609B90120704710680068A4
:1012000000F00C00C86210680068C0F3001081F89C
:1012100028001068006800F06000486210680068EC
:10122000C0F3002080F0010081F820001068006801
:10123000C0F34020C87710680068C0F3802080F0B9
:101240000100887710680068C0F3C02048771068F4
:101250000068C0F3003008771068006800F40050A0
:1012600088611068006800F4804048611068006878
:10127000C0F30040887410680068C0F3404080F0FC
:101280000100487410680068C0F3C04080F001009D
:10129000087410680068C0F30050C87310680068D4
:1012A000C0F34050887310680068C0F380504873E2
:1012B00010680068C0F3C05008731068006800F040
:1012C000E060886010680068C0F3C0600871106852
:1012D000006800F0E040086010684068C0F30D004E
:1012E000486310684068C0F3004080F0010081F856
:1012F000320010684068C0F3404081F83100106847
:101300004068C0F3804081F8300010684068C0F346
:10131000006081F8380010684068C0F34460C8631A
:101320001068C068C0F3002081F840001068C068F1
:1013300000F00F0048641068006FC0F3400081F8AF
:1013400054001068006FC0F3C01080F0010081F8F5
:101350004C001068006F00F0700008651068006FA6
:10136000000C88641068D0F8900000F0010081F84B
:1013700056001068D0F89000C0F3400081F8550086
:101380001068D0F8000D00F0720088651068D0F881
:10139000300D00F02300C8651068D0F8300DC0F3A0
:1013A000C00081F862001068D0F8300DC0F3001062
:1013B00081F861001068D0F8300DC0F3801080F023
:1013C000010081F86000002017E72DE9F84F05467D
:1013D0008A4605F12C07D7F814800020009057F8B2
:1013E000286054461CB90120E865BDE8F88FB8694B
:1013F00048B9284600F0DCF908B90120F5E7D7F82C
:10140000148057F828604FF0000B1CE03069206012
:1014100068696060706920B1A4687069206068695B
:101420006060F068C0F30E00009000BF08F1010892
:10143000B8F1040F01D3A8F1040800BF57F82860E1
:10144000A4680BF1010BB869401E5845DED8F0685E
:10145000C0F30E010098A1EB0009306920606869B3
:10146000484502D3C4F804900DE0706948B168693A
:101470006060A468706920606869A9EB0000606022
:1014800001E00120B1E70020AFE72DE9F0418046FF
:101490000E4608F12C046569A06930B9404600F099
:1014A00087F910B90120BDE8F08100BFA069401E96
:1014B0000544042D00D32D1F00BF54F82570F86893
:1014C000C0F30E0030600020EDE7000010B50446C8
:1014D000206800F58050D0F8600100F040004028FE
:1014E00012D1206800F58050D0F8340100F040009F
:1014F000402809D1204600F050FA48F24001206807
:1015000000F58050C0F86011206800F58050D0F8D8
:10151000600100F0010088B1206800F58050D0F82B
:10152000340100F0010048B1204600F0B2FB48F25F
:101530000101206800F58050C0F86011206800F5B6
:101540008050D0F8600100F48040B0F5804F41D168
:10155000206800F58050D0F8340100F48040B0F5E8
:10156000804F37D1E06D40F00800E065206800F55D
:101570008050D0F8600100F48050B0F5805F17D142
:10158000206800F58050D0F8600141F20211084057
:101590002066206800F58050D0F8340120F44041E6
:1015A000206800F58050C0F83411E02060650EE03E
:1015B000206800F58050D0F8600100F4CD4020662E
:1015C0004FF4CD41206800F58050C0F860112046EE
:1015D000FFF7EEFD2068D0F8B00000F4C040B0F591
:1015E000C04F0AD12068D0F8B8006066E02060657E
:1015F000204600F05CF9002060662068D0F8B0005A
:1016000000F0100010280AD12068D0F8C00000F0C7
:101610006000A066204600F083F90020A0662068E4
:10162000D0F8B00000F0200020280AD12068D0F8BF
:10163000C00000F00F00E0662046FFF7DAFD002052
:10164000E0660648006800F4800030B14FF4800086
:1016500002490860204600F01DFB10BDA80000589C
:1016600038B504460CB9012038BD606D10B920466C
:1016700000F01EF92320606500BF4B48006840F071
:101680000200494908600846006800F00200009026
:1016900000BF00BF207A18B9002002F057FC03E019
:1016A0004FF4000002F052FC206800F58050006802
:1016B00040F00101206800F58050016000F092FCCC
:1016C00005460BE000F08EFC401BB0F5FA7F05D913
:1016D0000420E065E02060650120C5E7206800F592
:1016E0008050006800F001000028EBD12046FFF791
:1016F000A9F801F035FF2D49B0FBF1F0401E21683B
:10170000C1F8DC002046FFF719F8206800F580508A
:10171000D0F8000120F4E01040F40021206800F52A
:101720008050C0F80011207D00F0030028B1012096
:10173000E065E0206065012096E7206800F58050B4
:10174000D0F8080147F6FE718843616940EA41011B
:10175000206800F58050C0F808112046FEF7D4FE3E
:101760002046FEF7A0FE606800796168497940EA8A
:1017700001202168C1F800036068C0780006616834
:10178000897840EA01406168497840EA012061684F
:10179000097808432168C1F804030020E06510209F
:1017A0006065A06500205FE7F444025840420F00E6
:1017B000F0B5074607F12C03196953F821200025DD
:1017C00000240026986908B10020F0BD3DE06D1CA2
:1017D000D06800F0805000B3641C012C00D10E468C
:1017E00000BF491C042900D3091F00BF53F8212062
:1017F000D06800F0004058B9D06800F0804038B19F
:101800000120D86100BF491C042900D3091F00BF73
:1018100019615E619C610120D7E7D06800F000503B
:1018200050B10E46012400BF491C042900D3091FF2
:1018300000BF53F8212008E0641C00BF491C0429A4
:1018400000D3091F00BF53F82120D06800F00040EA
:1018500008B9042DBBD334B3314653F821200025F9
:101860001FE0106910604FF08070D060506928B19F
:1018700050699060D06840F00070D060D06840F04F
:101880000040D060186A18B1D06840F08040D06045
:1018900000BF491C042900D3091F00BF53F82120B1
:1018A0006D1CA542DDD30020986100BF8DE7704715
:1018B00038B50446FEF752FE002201213D2000F01B
:1018C00052FC3D2000F03FFC00BF1448006840F48B
:1018D0000040124908600846006800F4004000908B
:1018E00000BF00BF00BF0846006840F480300860B9
:1018F0000846006800F48030009000BF00BF00BFC1
:101900000846006840F4003008600846006800F4AB
:101910000030009000BF00BF38BD0000D84402581E
:1019200070472DE9F04704460F46904699462068D7
:10193000D0F8000200F0010010B10120BDE8F087EE
:101940002068D0F8005225F0787040EA475525F419
:10195000F81040EA084545F00C0545F001052068FF
:10196000C0F8005200F03EFB064607E000F03AFBEC
:10197000801BB0F57A7F01D90120DFE72068D0F81D
:10198000000200F001000028F0D12068D0F8040225
:1019900080B2C9F800000020D0E7704770B5044657
:1019A0000D460DB9012070BDA06D102805D1294646
:1019B0002046FFF787F90020F5E70120F3E7000054
:1019C00070B506463068D0F8004224F4706401F027
:1019D000C7FD05461348854205D31348854202D208
:1019E00044F400741AE01048854205D30F4885423C
:1019F00002D244F4407411E00C48854203D30C48F1
:101A0000854200D20AE00A48854205D3094885424A
:101A100002D244F4807401E044F480643068C0F879
:101A2000004270BD002D3101C00E160200879303E5
:101A300000E1F50580D1F00830B50146002201F142
:101A40002C0050F82240486D102861D123204865B1
:101A500000230EE0E06840F08040E06000BF521CD0
:101A6000042A00D3121F00BF01F12C0050F82240BD
:101A70005B1C042BEED30125CD640868006840F0A0
:101A800002000D6828600868006840F001000D68D9
:101A900028600868D0F8000D40F001000D68C5F816
:101AA000000D086800F58050D0F8040140F00105F1
:101AB000086800F58050C0F80451086800F58050AF
:101AC000D0F8080140F00105086800F58050C0F822
:101AD0000851086800F58050D0F8600140F4817525
:101AE000086800F58050C0F8605110204865222039
:101AF0008865086800F58050D0F834014DF2410542
:101B000028430D6805F58055C5F83401002030BD27
:101B10000120FCE710B50146CB6A486D00284AD089
:101B200023204865086800F58050D0F8340148F259
:101B30004104A0430C6804F58054C4F834010868DB
:101B400000F58050D0F8040120F00104086800F589
:101B50008050C0F80441086800F58050D0F80801B2
:101B600020F00104086800F58050C0F808410868BA
:101B7000006820F001000C6820600868D0F8000DB3
:101B800040F001000C68C4F8000D0868006820F0FF
:101B900002000C682060002204E0D86820F0804039
:101BA000D860521C042AF8D30024CC641020486565
:101BB0008865002010BD0120FCE72DE9F0410446B6
:101BC0000F46154637B9E06D40F00100E065012091
:101BD000BDE8F081606D102859D1002239462046B9
:101BE000FEF76CFE28B1E06D40F00200E0650120D8
:101BF000EEE704F11800A16A50F8218000BFA06A46
:101C0000401CA062A06A042802D3A06A001FA06240
:101C100000BF04F11800A16A50F82110206800F5F7
:101C20008050C0F8201100F0DDF9064625E020685C
:101C300000F58050D0F8600100F4805068B1E06D8C
:101C400040F00800E065206800F58050D0F86001A1
:101C50002066E02060650120BAE7681C68B100F0EA
:101C6000C1F9801BA84200D83DB9E06D40F00400E6
:101C7000E065102060650120AAE7D8F80C0000F0AC
:101C800000400028D3D1102060650020A0E701208B
:101C90009EE77047704700002DE9F04705460F4664
:101CA000904699462868D0F8000200F0010010B173
:101CB0000120BDE8F0872868D0F8004224F0787051
:101CC00040EA475424F4F81040EA084424F00C0099
:101CD000041D44F001041FFA89F00D4908600D4805
:101CE000C0F8004200F07EF9064607E000F07AF9FD
:101CF000801BB0F57A7F01D90120DAE72868D0F897
:101D0000000200F001000028F0D100BFD1E7000080
:101D1000048202400080024010B50446642005F0B1
:101D200011FA012C07D0042C0FD0082C20D0B4F5C8
:101D3000005F26D112E00121134800F03FF901288D
:101D400002D10320114908601BE00421104800F073
:101D500035F910B901200D49086012E04FF4005127
:101D60000C4800F02BF910B902200849086008E07F
:101D70000821074800F022F910B900200349086043
:101D800000BF00BF10BD0000000002581400002476
:101D9000001C02580008025810B5044604480068A8
:101DA000204020B1024804602046FFF7B5FF10BD77
:101DB00088000058F8B502460023734DDEE0012785
:101DC0009F400E6806EA0704002C71D04E68022E70
:101DD00002D04E68122E13D1DF0802F1200656F809
:101DE00027005E07F70E0F26BE40B0435F07FF0EC9
:101DF0000E69BE403043DF0802F1200646F8270096
:101E000010685F000326BE40B0430E7906F003065B
:101E10005F00BE40304310604E68012E08D04E680F
:101E2000022E05D04E68112E02D04E68122E13D10C
:101E300090685F000326BE40B0435F00CE68BE409E
:101E400030439060506801269E40B0430E79C6F33F
:101E500000169E4030435060D0685F000326BE40AD
:101E6000B0435F008E68BE403043D0604E6806F0DD
:101E70008056B6F1805F1BD100BF444E366846F0F5
:101E80000206424F3E603E46366806F00206009665
:101E900000BF00BF3E4E9F0856F827009E07370F31
:101EA0000F26BE40B0433B4EB24202D100262EE088
:101EB00063E0394EB24201D1012628E0374EB242EA
:101EC00001D1022623E0364EB24201D103261EE0A4
:101ED000344EB24201D1042619E0334EB24201D150
:101EE000052614E0314EB24201D106260FE0304EF5
:101EF000B24201D107260AE02E4EB24201D1082695
:101F000005E02D4EB24201D1092600E00A269F07C6
:101F10003F0FBE4030431E4E9F0846F827002868FA
:101F2000A0434E6806F48036B6F5803F00D12043CA
:101F300028606868A0434E6806F40036B6F5003F96
:101F400000D1204368604FF0B0463068A0434E682F
:101F500006F48016B6F5801F00D120434FF0B0463E
:101F600030607068A0434E6806F40016B6F5001F96
:101F700000D120434FF0B04670605B1C0E68DE401D
:101F8000002E7FF41CAFF8BD80000058F4440258C6
:101F900008040058000002580004025800080258C3
:101FA000000C025800100258001402580018025881
:101FB000001C0258002002580024025802461369EF
:101FC0000B400BB1012000E0002070470AB1816195
:101FD00001E00B048361704701480068000C704702
:101FE0000010005C014800687047000008000024F1
:101FF00010B5032000F0F4F801F0EEFA104909687A
:10200000C1F303210F4A515C01F01F01C8400E4982
:1020100008600B48006800F00F001146085C00F0F3
:102020001F0109480068C84008490860002000F006
:102030000FF808B1012010BD00F084F80020FAE785
:102040001844025828DD0008000000240400002481
:1020500070B504461148007808B9012070BD0F48DA
:1020600000784FF47A71B1FBF0F00D490968B1FBCB
:10207000F0F5284601F089FF08B10120EEE7102CA9
:1020800007D200222146501E00F06DF8054804607A
:1020900001E00120E2E70020E0E70000100000245A
:1020A000000000240C0000244178154A11600178DA
:1020B000F9B1121D41681160017B0907C27A41EA3A
:1020C0000261827A41EAC241427B41EA8241827BDB
:1020D00041EA4241C27B41EA0241427A41EA02219D
:1020E000027A41EA420102781143054A083211603E
:1020F00005E00021024A121D1160121D1160704797
:1021000098ED00E040F001010D4A11600C49703972
:10211000096841F480310A4A703A116000BF00BF7B
:1021200000BFBFF34F8F00BF00BF00BF00BF00BFA5
:1021300000BFBFF36F8F00BF00BF00BF704700003C
:1021400094ED00E0704701460846002809DB00F0E6
:102150001F0301229A4043099B0003F1E023C3F8C7
:10216000002100BF70472DE9F05F80460D461646FE
:1021700004F0CEFE074639462A46334601F00700F2
:10218000C0F1070ABAF1040F02D94FF0040A01E0C6
:10219000C0F1070AD14600F1040ABAF1070F02D2D2
:1021A0004FF0000A01E0A0F1030AD4464FF0010A03
:1021B0000AFA09FAAAF1010A0AEA020A0AFA0CFA68
:1021C0004FF0010B0BFA0CFBABF1010B0BEA030B0D
:1021D0004AEA0B042146404604F0A2FEBDE8F09F07
:1021E00000BF00F00702064B19684FF6FF031940C5
:1021F000044B0B4343EA0221014B196000BF7047B7
:102200000CED00E00000FA0570B5044615480068C2
:1022100000F00400042807D01248006800F007000E
:10222000A04201D0012070BD0E48006820F00700D8
:1022300020430C490860FFF7D5FE054607E0FFF78D
:10224000D1FE401BB0F57A7F01D90320EBE70548AA
:102250000838006800F40050B0F5005FEFD10020AE
:10226000E1E700000C48025810B501F0B5F9074944
:102270000968C1F30321064A515C01F01F01C840FF
:10228000044908600846006810BD00001844025860
:1022900028DD00080000002410B501F061F90549AF
:1022A0000968C1F30211044A515C01F01F01C840E2
:1022B00010BD00002044025828DD000870B501461A
:1022C000844D2D6805F00303824D2D68C5F305305C
:1022D000804D2D1D2D6805F010047E4D14352D68A0
:1022E000C5F3CC0515FB04F501EE105AB8EE411A02
:1022F000F0EE410A00286FD023B1012B4ED0022B03
:102300006BD16BE0734D283D2D68C5F340153DB38F
:10231000704D283D2D68C5F3C1066F4D25FA06F2B4
:1023200001EE102AF8EE411A01EE100AB8EE411A39
:1023300081EE812A9FED691AC0EE811A654D103534
:102340002D68C5F3080501EE105AB8EE411A31EEBA
:10235000811AF7EE001A31EE211A22EE010A1CE072
:1023600001EE100AB8EE411ADFED5D1A81EE812A06
:102370009FED5A1AC0EE811A564D10352D68C5F3DF
:10238000080501EE105AB8EE411A31EE811AF7EE47
:10239000001A31EE211A22EE010A5BE001EE100A6A
:1023A000B8EE411ADFED4F1A81EE812A9FED4B1AEC
:1023B000C0EE811A474D10352D68C5F3080501EEB2
:1023C000105AB8EE411A31EE811AF7EE001A31EECA
:1023D000211A22EE010A3DE077E01DE001EE100A2D
:1023E000B8EE411A9FED402AC2EE011A9FED3B1A4A
:1023F00080EE812A374D10352D68C5F3080501EEB2
:10240000105AB8EE411A32EE011AB7EE002A31EE38
:10241000021A21EE810A1DE001EE100AB8EE411AFF
:10242000DFED301A81EE812A9FED2C1AC0EE811A61
:10243000284D10352D68C5F3080501EE105AB8EE89
:10244000411A31EE811AF7EE001A31EE211A22EE0E
:10245000010A00BF00BF1F4D10352D68C5F346258A
:1024600001EE105AB8EE411AF7EE001A31EE211AB9
:10247000C0EE011ABCEEE11A81ED001A154D1035BF
:102480002D68C5F3064501EE105AB8EE411AF7EE75
:10249000001A31EE211AC0EE011ABCEEE11A81EDEC
:1024A000011A0C4D10352D68C5F3066501EE105A62
:1024B000B8EE411AF7EE001A31EE211AC0EE011AF9
:1024C000BCEEE11A81ED021A03E000250D604D60BB
:1024D0008D6070BD284402580090D0030000004673
:1024E0000024744C0024744A20BCBE4B70B50146D5
:1024F000844D2D6805F00303824D2D68C5F305500A
:10250000804D2D1D2D6805F480747E4D1C352D6881
:10251000C5F3CC0515FB04F501EE105AB8EE411ACF
:10252000F0EE410A00286FD023B1012B4ED0022BD0
:102530006BD16BE0734D283D2D68C5F340153DB35D
:10254000704D283D2D68C5F3C1066F4D25FA06F282
:1025500001EE102AF8EE411A01EE100AB8EE411A07
:1025600081EE812A9FED691AC0EE811A654D1835FA
:102570002D68C5F3080501EE105AB8EE411A31EE88
:10258000811AF7EE001A31EE211A22EE010A1CE040
:1025900001EE100AB8EE411ADFED5D1A81EE812AD4
:1025A0009FED5A1AC0EE811A564D18352D68C5F3A5
:1025B000080501EE105AB8EE411A31EE811AF7EE15
:1025C000001A31EE211A22EE010A5BE001EE100A38
:1025D000B8EE411ADFED4F1A81EE812A9FED4B1ABA
:1025E000C0EE811A474D18352D68C5F3080501EE78
:1025F000105AB8EE411A31EE811AF7EE001A31EE98
:10260000211A22EE010A3DE077E01DE001EE100AFA
:10261000B8EE411A9FED402AC2EE011A9FED3B1A17
:1026200080EE812A374D18352D68C5F3080501EE77
:10263000105AB8EE411A32EE011AB7EE002A31EE06
:10264000021A21EE810A1DE001EE100AB8EE411ACD
:10265000DFED301A81EE812A9FED2C1AC0EE811A2F
:10266000284D18352D68C5F3080501EE105AB8EE4F
:10267000411A31EE811AF7EE001A31EE211A22EEDC
:10268000010A00BF00BF1F4D18352D68C5F3462550
:1026900001EE105AB8EE411AF7EE001A31EE211A87
:1026A000C0EE011ABCEEE11A81ED001A154D183585
:1026B0002D68C5F3064501EE105AB8EE411AF7EE43
:1026C000001A31EE211AC0EE011ABCEEE11A81EDBA
:1026D000011A0C4D18352D68C5F3066501EE105A28
:1026E000B8EE411AF7EE001A31EE211AC0EE011AC7
:1026F000BCEEE11A81ED021A03E000250D604D6089
:102700008D6070BD284402580090D0030000004640
:102710000024744C0024744A20BCBE4B2DE9F041C7
:1027200004460025A846206800F00060B0F1006F64
:1027300030D1606E48B1B0F5801F0DD0B0F5001FEC
:1027400010D0B0F5401F15D113E0F948006840F4EF
:102750000030F74908600FE00221201D02F0D0FA96
:10276000054609E0022104F1240002F07BFB054646
:1027700002E001E0012500BF00BF55B9EC4824305C
:10278000006820F44010616E0843E9492431086074
:1027900000E0A846208800F48070B0F5807F2DD13D
:1027A000606D05281AD2DFE800F0030A1017180040
:1027B000DF48006840F40030DD49086010E0002187
:1027C000201D02F09DFA05460AE0002104F12400D4
:1027D00002F048FB054603E002E001E0012500BFEE
:1027E00000BF55B9D2482430006820F00700616D61
:1027F0000843CF492431086000E0A846208800F44F
:102800000070B0F5007F33D1A06D802817D003DCB5
:1028100040B140281CD10CE0C02817D0B0F5807F13
:1028200016D114E0C248006840F40030C049086086
:1028300010E00021201D02F063FA05460AE00021A5
:1028400004F1240002F00EFB054603E002E001E083
:10285000012500BF00BF55B9B5482430006820F4F9
:10286000E070A16D0843B2492431086000E0A84639
:10287000208800F48060B0F5806F38D1D4F8A400CF
:10288000B0F5800F19D004DC50B1B0F5001F1DD198
:102890000DE0B0F5C00F17D0B0F5000F16D114E061
:1028A000A348006840F40030A149086010E000210E
:1028B000201D02F025FA05460AE0002104F124005B
:1028C00002F0D0FA054603E002E001E0012500BF76
:1028D00000BF5DB996482C30006820F46000D4F841
:1028E000A410084392492C31086000E0A8462088D3
:1028F00000F40060B0F5006F38D1D4F8A800B0F152
:10290000007F19D004DC50B1B0F1807F1DD10DE003
:10291000B0F1407F17D0B0F1806F16D114E0844839
:10292000006840F400308249086010E00021201D5A
:1029300002F0E6F905460AE0002104F1240002F065
:1029400091FA054603E002E001E0012500BF00BF67
:102950005DB977482C30006820F0E060D4F8A8100A
:10296000084373492C31086000E0A846206800F055
:102970000070B0F1007F27D1A06CA0B1102804D066
:10298000202809D030280FD10CE06948006840F4B5
:1029900000306749086009E00221201D02F0B0F90B
:1029A000054603E002E001E0012500BF00BF55B984
:1029B0005F482030006820F03000A16C08435C497B
:1029C0002031086000E0A846208800F48050B0F56F
:1029D000805F36D1E06DB0F5005F19D004DC50B1F6
:1029E000B0F5805F1DD10DE0B0F5405F17D0B0F5B8
:1029F000804F16D114E04E48006840F400304C4936
:102A0000086010E00021201D02F07AF905460AE076
:102A1000002104F1240002F025FA054603E002E05B
:102A200001E0012500BF00BF55B9414824300068CE
:102A300020F4E040E16D08433D492431086000E0A6
:102A4000A846208800F40050B0F5005F34D1206E15
:102A5000B0F5403F1DD007DC68B1B0F5803F0BD02A
:102A6000B0F5003F18D10DE0B0F5802F12D0B0F5D1
:102A7000A02F11D10FE011E00121201D02F040F93B
:102A800005460BE0012104F1240002F0EBF90546B4
:102A900004E003E002E001E0012500BF00BF55B9FA
:102AA00023482430006820F4E020216E08432049A8
:102AB0002431086000E0A846208800F48040B0F58A
:102AC000804F38D1D4F8AC00B0F1405F1DD007DCA6
:102AD00068B1B0F1805F0BD0B0F1005F18D10DE0AC
:102AE000B0F1804F12D0B0F1A04F11D10FE011E042
:102AF0000121201D02F004F905460BE0012104F13B
:102B0000240002F0AFF9054604E003E002E001E032
:102B1000012500BF00BF6DB905482C30006820F0CA
:102B2000E040D4F8AC10084301492C31086002E0C1
:102B30002C440258A846208800F40040B0F5004F0D
:102B400026D1E06E98B1B0F1805F03D0B0F1005FA4
:102B50000ED106E0F948006840F40030F7490860FB
:102B600008E00121201D02F0CBF8054602E001E05B
:102B7000012500BF00BF55B9F0482430006820F09F
:102B80004050E16E0843ED492431086000E0A8465A
:102B9000206800F08070B0F1807F27D1606CA0B118
:102BA000012804D0022809D003280FD10CE0E34803
:102BB000006840F40030E149086009E00221201D6E
:102BC00002F09EF8054603E002E001E0012500BFA7
:102BD00000BF55B9D9482030006820F00300616C6F
:102BE0000843D6492031086000E0A846206800F478
:102BF0008000B0F5800F7DD1D148006840F480702E
:102C0000CF490860FFF7EEF9064606E0FFF7EAF95C
:102C1000801B642801D9032505E0C948006800F439
:102C200080700028F2D000BF85BBC44844300068E3
:102C300000F44070B4F8B01001F44071884213D031
:102C4000BE484430006820F44077BC4844300068F7
:102C500040F48030B949443108600846006820F4E7
:102C60008030086008460760D4F8B000B0F5807F77
:102C700015D1FFF7B7F9064609E0FFF7B3F9801B56
:102C800041F28831884202D9032507E038E0AB4899
:102C900044300068C0F340000028EED000BF55BBB0
:102CA00000BFB4F8B00000F44070B0F5407F0ED122
:102CB000A2481C38006820F47C51A24AD4F8B00025
:102CC000104041EA10109D491C39086007E09B48FC
:102CD0001C38006820F47C5098491C3908609748DB
:102CE00044300068B4F8B010C1F30B0108439349B5
:102CF000443101E005E001E0086002E0A84600E0A0
:102D0000A846207800F0010068B3A06F182819D0F9
:102D100005DC48B1082808D0102816D10BE020287F
:102D200011D0282811D10FE011E00121201D01F060
:102D3000E7FF05460BE0012104F1240002F092F8C0
:102D4000054604E003E002E001E0012500BF00BF0A
:102D500055B97A482830006820F03800A16F084340
:102D600076492831086000E0A846207800F002008B
:102D7000022828D1606F062815D2DFE800F003048E
:102D80000A11121311E00121201D01F0B9FF0546BF
:102D90000BE0012104F1240002F064F8054604E090
:102DA00003E002E001E0012500BF00BF55B9634820
:102DB0002830006820F00700616F08435F49283120
:102DC000086000E0A846207800F0040004282AD11A
:102DD000D4F89000062815D2DFE800F003040A11A9
:102DE000121311E00121201D01F08AFF05460BE0BE
:102DF000012104F1240002F035F8054604E003E067
:102E000002E001E0012500BF00BF5DB94B482C3056
:102E1000006820F00700D4F89010084347492C318F
:102E2000086000E0A846207800F02000202836D175
:102E3000D4F88C00B0F1405F1DD007DC68B1B0F170
:102E4000805F0BD0B0F1005F18D10DE0B0F1804F82
:102E500012D0B0F1A04F11D10FE011E00021201DE0
:102E600001F04EFF05460BE0022104F1240001F0C1
:102E7000F9FF054604E003E002E001E0012500BFA0
:102E800000BF5DB92D482830006820F0E040D4F83C
:102E90008C10084329492831086000E0A8462078B2
:102EA00000F04000402836D1D4F89800B0F5406FCB
:102EB0001DD007DC68B1B0F5806F0BD0B0F5006FA6
:102EC00018D10DE0B0F5805F12D0B0F5A05F11D140
:102ED0000FE011E00021201D01F012FF05460BE07C
:102EE000022104F1240001F0BDFF054604E003E0E7
:102EF00002E001E0012500BF00BF5DB90F482C30A2
:102F0000006820F4E050D4F8981008430B492C31A5
:102F1000086000E0A846207800F0800080283AD1C0
:102F2000D4F89C00B0F5C04F23D00DDC98B1B0F5BB
:102F3000005F11D0B0F5804F1ED113E02C44025831
:102F400000480258FFFCFF0FB0F5004F12D0B0F55B
:102F5000204F11D10FE011E00021201D01F0D0FE23
:102F600005460BE0022104F1240001F07BFF054639
:102F700004E003E002E001E0012500BF00BF4DB91D
:102F8000B648006820F46040D4F89C100843B34968
:102F9000086000E0A846207800F00800082818D152
:102FA000D4F88000B0F5805F08D1022104F124003C
:102FB00001F058FF68B14FF001080AE0A748001F70
:102FC000006820F44050D4F880100843A349091F3A
:102FD0000860207800F01000102816D1D4F8940072
:102FE000B0F5807F08D1022104F1240001F03AFFFE
:102FF00058B14FF0010808E09848006820F440708C
:10300000D4F89410084395490860206800F4002023
:10301000B0F5002F26D1D4F8A00030B1B0F5803F34
:1030200009D0B0F5003F0ED10CE00021201D01F0C9
:1030300067FE054609E0022104F1240001F012FFB9
:10304000054602E001E0012500BF00BF4DB98348FD
:10305000006820F44030D4F8A01008437F4908608D
:1030600000E0A846206800F48020B0F5802F2DD124
:10307000D4F88400B0F5801F06D0B0F5001F0CD046
:10308000B0F5401F11D10FE074482C38006840F4AF
:10309000003072492C39086009E0012104F1240054
:1030A00001F0E0FE054602E001E0012500BF00BF9F
:1030B0005DB96A48001F006820F44010D4F88410FD
:1030C00008436649091F086000E0A846206800F42C
:1030D0008030B0F5803F24D1E06C18B1B0F5803F6E
:1030E0000FD108E05D482C38006840F400305B499F
:1030F0002C39086007E00221201D01F001FE054681
:1031000001E0012500BF00BF55B954480C380068E4
:1031100020F48030E16C084350490C39086000E02D
:10312000A846206800F00050B0F1005F07D10221EE
:1031300004F1240001F096FE08B14FF00108206868
:1031400000F40030B0F5003F27D1E06FA0B1B0F53A
:10315000807F06D0B0F5007F0CD0B0F5407F0CD159
:1031600009E03E482C38006840F400303B492C39D7
:10317000086004E003E002E001E0012500BF00BFB9
:1031800055B93648001F006820F44070E16F0843CD
:103190003249091F086000E0A846206800F480104A
:1031A000B0F5801F09D12D480838006820F0004094
:1031B000216F0843294908390860206800F08050D1
:1031C000B0F1805F0AD125484838006820F480407B
:1031D000D4F8B4100843214948390860206800F445
:1031E0000010B0F5001F09D11C480838006820F015
:1031F0008070A16E0843194908390860206800F002
:103200008040B0F1804F11D100BF144848380068A9
:1032100020F4004011494839086008460068D4F895
:10322000B81008430D494839086000BF206800F015
:103230000040B0F1004F09D108480C38006820F078
:103240004050216D084305490C390860B8F1000F62
:1032500002D10020BDE8F0810120FBE7584402586C
:103260002DE9F04104460D4614B90120BDE8F08176
:10327000B648006800F00F00A8420ED2B3480068BC
:1032800020F00F002843B14908600846006800F0AC
:103290000F00A84201D00120E8E7207800F00400E8
:1032A00004280ED1AA492069096801F070018842FA
:1032B00007D9A748006820F0700021690843A44995
:1032C0000860207800F00800082811D1A049091DE5
:1032D0006069096801F07001884209D99C48001DA5
:1032E000006820F07000616908439949091D086071
:1032F000207800F01000102811D19549091DA0690F
:10330000096801F4E061884209D99148001D00680C
:1033100020F4E060A16908438D49091D0860207808
:1033200000F02000202811D189490831E06909689E
:1033300001F07001884209D985480830006820F002
:103340007000E1690843824908310860207800F084
:10335000020002280ED17E49E068096801F00F01E1
:10336000884207D97A48006820F00F00E1680843D6
:1033700077490860207800F00100002850D0744898
:10338000006820F47060A1680843714908606068B3
:10339000022807D16E4818380068C0F34040F8B9D9
:1033A000012063E76068032807D16948183800687E
:1033B000C0F34060A0B9012058E76068012807D138
:1033C000634818380068C0F3002048B901204DE771
:1033D0005F4818380068C0F3800008B9012045E74D
:1033E0005B480838006820F00700616808435849C6
:1033F00008390860FEF7F6FD064608E0FEF7F2FD24
:10340000801B41F28831884201D903202EE75048C1
:103410000838006800F038006168B0EBC10FEDD1EA
:10342000207800F0020002280ED14949E0680968BE
:1034300001F00F01884207D24548006820F00F00D4
:10344000E1680843424908604048006800F00F0006
:10345000A8420ED93D48006820F00F0028433B49A0
:1034600008600846006800F00F00A84201D0012063
:10347000FCE6207800F0040004280ED134492069CD
:10348000096801F07001884207D23148006820F0D5
:103490007000216908432E490860207800F0080078
:1034A000082811D12A49091D6069096801F07001D5
:1034B000884209D22648001D006820F0700061692A
:1034C00008432349091D0860207800F010001028E7
:1034D00011D11F49091DA069096801F4E061884202
:1034E00009D21B48001D006820F4E060A169084370
:1034F0001749091D0860207800F02000202811D10C
:1035000013490831E069096801F07001884209D265
:103510000F480830006820F07000E16908430C494A
:103520000831086000F058F809490968C1F303211F
:10353000084A515C01F01F01C8400749086007486C
:103540000068FEF785FD074638468FE600200052EA
:103550001844025828DD0008000000240C00002454
:1035600010B5FEF781FE0749096801F00F01064A10
:10357000515C01F01F01C84004490860084600681A
:1035800010BD00001844025828DD00080400002483
:1035900010B5FFF7E5FF05490968C1F30211044AB8
:1035A000515C01F01F01C84010BD00001C440258CE
:1035B00028DD000810B5FFF7D3FF05490968C1F3FE
:1035C0000221044A515C01F01F01C84010BD0000F7
:1035D0001C44025828DD0008F0B5824E366806F01B
:1035E000380636B1082E15D0102E15D0182E7DD1E4
:1035F00014E07C4E103E3668C6F3401646B1794E54
:10360000103E3668C6F3C107774E26FA07F000E091
:103610007548E5E07548E3E07548E1E0714E18361D
:10362000366806F003046F4E18363668C6F3051187
:103630006C4E1C36366806F001056A4E2436366834
:10364000C6F3CC0616FB05F601EE106AB8EE410A89
:10365000002971D024B1012C50D0022C6DD16DE025
:10366000604E103E3668C6F340163EB35D4E103EC7
:103670003668C6F3C1075C4E26FA07F301EE103A2E
:10368000F8EE411A01EE101AB8EE411A81EE812AC5
:103690009FED581AC0EE011A524E20363668C6F316
:1036A000080601EE106AB8EE411A31EE811AF7EE03
:1036B000001A31EE211A62EE010A1EE001EE101A24
:1036C000B8EE411ADFED4C1A81EE812A9FED491ABE
:1036D000C0EE011A434E20363668C6F3080601EEE6
:1036E000106AB8EE411A31EE811A00E076E0F7EE8A
:1036F000001A31EE211A62EE010A5BE001EE101AA7
:10370000B8EE411A9FED3D2AC2EE011A9FED391A1B
:1037100080EE012A334E20363668C6F3080601EEE5
:10372000106AB8EE411A32EE011AB7EE002A31EEF5
:10373000021A61EE810A3DE04EE01DE001EE101A32
:10374000B8EE411ADFED2E1A81EE812A9FED291A7B
:10375000C0EE011A234E20363668C6F3080601EE85
:10376000106AB8EE411A31EE811AF7EE001A31EE06
:10377000211A62EE010A1DE001EE101AB8EE411A9C
:103780009FED1E2AC2EE011A9FED1A1A80EE012A41
:10379000144E20363668C6F3080601EE106AB8EEFD
:1037A000411A32EE011AB7EE002A31EE021A61EE2A
:1037B000810A00BF00BF0B4E20363668C6F346268E
:1037C000721C01EE102AB8EE411AC0EE811ABCEE4E
:1037D000E11A11EE100A00E0002001E0034800BFEA
:1037E00000BFF0BD104402580090D00300093D0016
:1037F00040787D01000000460024744C0024744A87
:1038000020BCBE4B2DE9F041044614B90120BDE8AF
:10381000F081207800F00100002871D0F84800689D
:1038200000F03806F64818300768102E05D0182E1C
:103830000FD107F0030002280BD1F14810380068BF
:10384000C0F3404000286AD06068002867D101209A
:10385000DDE700BF6068B0F5803F08D1E848103868
:10386000006840F48030E649103908602EE0606856
:1038700068B9E3481038006820F48030E049103916
:1038800008600846006820F4802008601EE0606838
:10389000B0F5A02F0DD1DA481038006840F4802030
:1038A000D749103908600846006840F48030086045
:1038B0000CE0D3481038006820F48030D04910392B
:1038C00008600846006820F48020086000BF606837
:1038D00090B1FEF787FB054606E0FEF783FB401B31
:1038E000642801D9032092E7C54810380068C0F366
:1038F00040400028F1D012E0FEF774FB054607E0D7
:103900000EE0FEF76FFB401B642801D903207EE721
:10391000BB4810380068C0F340400028F1D100BF18
:10392000207800F0020002287ED1B548006800F03F
:103930003806B3481830076826B1182E48D107F06A
:103940000300C0BBAE4810380068C0F3800018B157
:10395000E06808B901205AE7A9481038006820F04B
:103960001900E1680843A64910390860FEF73AFBE0
:10397000054606E0FEF736FB401B022801D903206E
:1039800045E79F4810380068C0F380000028F1D058
:1039900000BFFEF721FB41F2030188420CD8984892
:1039A0000C38006820F47C30216940EA01309449E9
:1039B0000C3908600BE00BE091480C38006820F0EF
:1039C000FE40217C40EA01608D490C39086059E0D5
:1039D000E06850B38A481038006820F01900E168A8
:1039E0000843874910390860FEF7FCFA054606E0EF
:1039F000FEF7F8FA401B022801D9032007E78048A8
:103A000010380068C0F380000028F1D000BFFEF736
:103A1000E3FA41F2030188420ED879480C38006875
:103A200020F47C30216901E02DE011E040EA013012
:103A300073490C3908600AE071480C38006820F0BE
:103A4000FE40217C40EA01606D490C39086019E0B4
:103A50006B481038006820F001006949103908608F
:103A6000FEF7C0FA054606E0FEF7BCFA401B022846
:103A700001D90320CBE6624810380068C0F380000B
:103A80000028F1D100BF207800F01000102878D174
:103A90005B48006800F03806594818300768082E5F
:103AA00005D0182E2FD107F0030001282BD1544840
:103AB00010380068C0F3002020B1E069802801D0F0
:103AC0000120A4E600BFFEF787FA41F20301884215
:103AD0000CD84B480C38006820F0F84094F82010BF
:103AE00040EA816046490C3908600BE04448001FF9
:103AF000006820F07C5094F8201040EA01604049B2
:103B0000091F086058E0E069D0B33D4810380068EC
:103B100040F080003A4910390860FEF763FA054624
:103B200006E0FEF75FFA401B022801D903206EE68B
:103B3000334810380068C0F300200028F1D000BFDF
:103B4000FEF74AFA41F2030188420CD82C480C389F
:103B5000006820F0F84094F8201040EA816028497D
:103B60000C3908600BE02648001F006820F07C50EC
:103B700094F8201040EA01602149091F08601BE009
:103B800000E01AE01E481038006820F080001C4950
:103B900010390860FEF726FA054606E0FEF722FA1D
:103BA000401B022801D9032031E61548103800686F
:103BB000C0F300200028F1D100BF207800F00800F9
:103BC000082836D16069E8B10D486430006840F0DB
:103BD00001000B4964310860FEF704FA054606E06F
:103BE000FEF700FA401B022801D903200FE6044823
:103BF00064300068C0F340000028F1D019E00000F4
:103C000010440258CF48006820F00100CD490860F8
:103C1000FEF7E8F9054606E0FEF7E4F9401B022846
:103C200001D90320F3E5C7480068C0F3400000282D
:103C3000F2D1207800F02000202836D1A069D0B140
:103C4000C0487438006840F48050BE497439086038
:103C5000FEF7C8F9054606E0FEF7C4F9401B022846
:103C600001D90320D3E5B74874380068C0F3403069
:103C70000028F1D019E0B3487438006820F480506F
:103C8000B04974390860FEF7ADF9054606E0FEF765
:103C9000A9F9401B022801D90320B8E5A9487438C6
:103CA0000068C0F340300028F1D1207800F0040013
:103CB00004287DD1A448006840F48070A2490860BF
:103CC000FEF790F9054606E0FEF78CF9401B6428E4
:103CD00001D903209BE59C48006800F4807000280F
:103CE000F2D000BFA068012808D19648001F0068E4
:103CF00040F001009349091F08602DE0A06868B9F1
:103D00009048001F006820F001008E49091F0860DC
:103D10000846006820F0040008601DE0A06805283F
:103D20000DD18848001F006840F004008549091F34
:103D300008600846006840F0010008600CE0814817
:103D4000001F006820F001007E49091F0860084636
:103D5000006820F00400086000BFA068A0B1FEF772
:103D600041F9054608E0FEF73DF9401B41F2883174
:103D7000884201D903204AE57248001F0068C0F359
:103D800040000028EFD013E0FEF72CF9054608E0CC
:103D9000FEF728F9401B41F28831884201D90320FF
:103DA00035E56848001F0068C0F340000028EFD1E7
:103DB000606A00287ED063486438006800F03800EC
:103DC000182878D0606A022876D15E487438006876
:103DD00020F080705B4974390860FEF703F90546EE
:103DE00006E0FEF7FFF8401B022801D903200EE58C
:103DF000544874380068C0F340600028F1D100BF17
:103E0000D4E90A1041EA00104E494C39096840F2E1
:103E1000F332914308434B494C390860208E401ED1
:103E2000C0F30800616B491E4FF47E4202EA412153
:103E30000843218F491ED20102EA014108433C2177
:103E4000095D491E120202EA016108433D494439F5
:103E5000086000BF081F006820F00100091F08600B
:103E60003848403800684FF6F8718843A16C40EA42
:103E7000C10034494039086032484838006820F0B1
:103E80000C00216C08432F49483908600846006837
:103E900020F00200616C08432A494839086008464E
:103EA000006840F4803008600846006840F4003044
:103EB000086002E043E040E024E00846006840F487
:103EC000802008600846006840F0010008601D4836
:103ED0007438006840F080701A4974390860FEF741
:103EE00081F8054606E0FEF77DF8401B022801D95F
:103EF00003208CE4134874380068C0F34060002845
:103F0000F1D01CE00F487438006820F080700D4933
:103F100074390860FEF766F8054606E0FEF762F8B9
:103F2000401B022801D9032071E406487438006858
:103F3000C0F340600028F1D101E0012067E40020D7
:103F400065E40000744402580048025803490968B7
:103F500021F460010143014A1160704704040058D4
:103F6000042808D14FF0E021096941F004014FF025
:103F7000E022116107E04FF0E021096921F004011E
:103F80004FF0E02211617047704770B50446254636
:103F9000681EB0F1807F01D301200FE0681E4FF052
:103FA000E02148610F214FF0FF3002F0B9FF0020FF
:103FB0004FF0E021886107200861002070BD10B536
:103FC000FFF7E2FF10BD70477047704710B5044619
:103FD0000CB9012010BD94F83D0028B9002084F8E8
:103FE0003C00204600F00CF8022084F83D00211D22
:103FF000206801F0ABF9012084F83D000020E9E7DA
:104000007047000001460868C06840F001000B6876
:10401000D86008688068084B00EA0302062A08D0C6
:10402000B2F5803F05D00868006840F001000B68D9
:10403000186000207047000007000100704710B5AD
:10404000044620680069C0F34000D8B12068C06809
:10405000C0F34000B0B16FF0020021680861012098
:1040600020772068806900F0030018B12046FFF730
:10407000E5FF05E0204600F0BEF8204600F0BCF861
:104080000020207720680069C0F38000D8B1206844
:10409000C068C0F38000B0B16FF00400216808610F
:1040A000022020772068806900F4407018B1204613
:1040B000FFF7C4FF05E0204600F09DF8204600F021
:1040C0009BF80020207720680069C0F3C000D8B1B9
:1040D0002068C068C0F3C000B0B16FF0080021686C
:1040E0000861042020772068C06900F0030018B13F
:1040F0002046FFF7A3FF05E0204600F07CF82046AD
:1041000000F07AF80020207720680069C0F30010E2
:10411000D8B12068C068C0F30010B0B16FF01000D3
:1041200021680861082020772068C06900F4407089
:1041300018B12046FFF782FF05E0204600F05BF84B
:10414000204600F059F8002020772068006900F030
:10415000010058B12068C06800F0010030B16FF074
:10416000010021680861204600F048F820680069D5
:10417000C0F3C01058B12068C068C0F3C01030B19F
:104180006FF08000216808612046FFF71DFF20685E
:104190000069C0F3002058B12068C068C0F3C010A7
:1041A00030B16FF48070216808612046FFF70BFF83
:1041B00020680069C0F3801058B12068C068C0F35F
:1041C000801030B16FF0400021680861204600F097
:1041D00023F820680069C0F3401058B12068C06817
:1041E000C0F3401030B16FF0200021680861204614
:1041F000FFF7EBFE10BD704770470000044A0168EE
:10420000914204D1034909680A31024A116070479A
:104210000004004024000024704770477047704736
:10422000704700002DE9F04704462068C569206802
:1042300006682068876840F60F0005EA0008B8F1B4
:10424000000F0FD105F0200060B106F0200010B97A
:1042500007F0805030B1E06E10B12046E16E884723
:10426000BDE8F087B8F1000F7ED06E48384018B92D
:104270006D4830400028F7D005F0010058B106F431
:10428000807040B1012021680862D4F8880040F0B5
:104290000100C4F8880005F0020058B107F00100E1
:1042A00040B1022021680862D4F8880040F0040080
:1042B000C4F8880005F0040058B107F0010040B1CF
:1042C000042021680862D4F8880040F00200C4F895
:1042D000880005F0080070B106F0200010B95148C0
:1042E000384040B1082021680862D4F8880040F0C6
:1042F0000800C4F8880005F4006060B106F0806032
:1043000048B14FF4006021680862D4F8880040F09A
:104310002000C4F88800D4F88800002844D005F0B4
:10432000200050B106F0200010B907F0805020B1F5
:10433000E06E10B12046E16E8847D4F8889020687E
:10434000806800F04000402802D009F0280028B31F
:10435000204601F057F92068806800F040004028AE
:1043600018D12068806800E01FE020F0400021683C
:104370008860A06F50B12D48A16F0865A06FFCF751
:1043800081FD88B1A06F016D88470DE02046FFF7E1
:1043900047FF09E02046FFF743FF05E02046FFF70F
:1043A0003FFF0020C4F888005AE705F4801050B1A0
:1043B00007F4800038B14FF480102168086220466D
:1043C000FFF72DFF4CE705F0800058B106F08000A4
:1043D00010B907F4000028B1206F10B12046216FFA
:1043E00088473DE705F0400030B106F0400018B1C5
:1043F000204601F01BF933E705F4000030B106F068
:10440000804018B12046FFF709FF29E705F08070CA
:1044100030B106F0004018B12046FFF7FEFE1FE75E
:1044200000BF1DE70100001020010004ED55000849
:1044300010B504460CB9012010BDA06900B100E020
:1044400000BFD4F8800028B9002084F87C00204602
:1044500000F02AF82420C4F880002068006820F0CA
:10446000010021680860204601F0F2F8012800D11F
:10447000E2E7A06A10B1204601F002F82068406827
:1044800020F49040216848602068806820F02A006D
:10449000216888602068006840F001002168086099
:1044A000204601F069F8C7E710B586B004462149F7
:1044B000206888423BD100BF1F48006840F00100DF
:1044C0001D4908600846006800F00100009000BF28
:1044D00000BF00BF18481030006840F010001649B7
:1044E000103108600846006800F01000009000BF1E
:1044F00000BF4FF400700190022002900120039051
:10450000022004900720059001A90C48FDF752FCF9
:104510004FF480600190022002900120039002205D
:1045200004900720059001A90448FDF743FC06B05C
:1045300010BD000000100140E04402580000025885
:104540002DE9F84F04460E4617469946D4F88000E8
:1045500020285DD106B117B90120BDE8F88F00BF52
:1045600094F87C00012801D10220F6E7012084F8AC
:104570007C0000BF0020543460632120E062FDF71E
:1045800031FD824627806780543CA068B0F5805F8B
:1045900004D1206910B90025B04602E035464FF03D
:1045A00000081DE05346002280212046CDF80090EF
:1045B00002F0C6FB08B10320CFE745B9B8F8000008
:1045C000C0F308002168886208F1020803E0287837
:1045D000216888626D1CB4F85600401EA4F856008D
:1045E000B4F856000028DDD1534600224021204671
:1045F000CDF8009002F0A4FB08B10320ADE7202025
:10460000C4F8800000BF002084F87C0000BFA4E74D
:104610000220A2E7704700BFFEE7000010B50022AD
:1046200010211248FDF7D2FC1048006820F44060C9
:104630000E4908600846006840F480600860002267
:1046400020210A48FDF7C2FC022002F095FD01225C
:1046500010210648FDF7BAFC022002F08DFD002271
:1046600010210248FDF7B2FC10BD0000001C0258EA
:1046700000B587B000BF1248006840F080001049C4
:1046800008600846006800F08000019000BF00BF8D
:10469000302002900120039004900320059002A98D
:1046A0000848FDF787FB012220210648FDF78EFC14
:1046B000012210210348FDF789FC07B000BD00006E
:1046C000E0440258001C025810B500221021124884
:1046D000FDF77CFC1048006820F440600E4908603B
:1046E0000846006840F480600860012220210A48E2
:1046F000FDF76CFC022002F03FFD0122102106486C
:10470000FDF764FC022002F037FD00221021024870
:10471000FDF75CFC10BD0000001C025870B505469A
:1047200000241848006820F44060164908600846D4
:104730000068086000261AE0002210211148FDF7E9
:1047400045FC022002F018FD012210210D48FDF762
:104750003DFC6006040E20210A48FDF72FFC08B13D
:10476000601CC4B2012002F007FD701CC6B2082E06
:10477000E2DB15B9FFF7A8FF01E0FFF74FFF204686
:1047800070BD0000001C025870B504461C4800684B
:1047900020F440601A4908600846006840F48060D0
:1047A0000860002210211648FDF710FC002523E0C8
:1047B000E00928B1012220211148FDF707FC04E09F
:1047C000002220210E48FDF701FC6006040E0220A5
:1047D00002F0D2FC012210210948FDF7F7FB02206C
:1047E00002F0CAFC002210210548FDF7EFFB022071
:1047F00002F0C2FC681CC5B2082DD9DB70BD0000F8
:10480000001C025810B51348006820F4406011499C
:1048100008600846006840F480600860012220219A
:104820000C48FDF7D3FB012210210A48FDF7CEFB0F
:10483000042002F0A1FC002220210648FDF7C6FB5F
:10484000042002F099FC002210210248FDF7BEFB73
:1048500010BD0000001C025810B51348006820F479
:104860004060114908600846006840F480600860B4
:10487000002210210C48FDF7A9FB002220210A4844
:10488000FDF7A4FB042002F077FC0122102106486A
:10489000FDF79CFB012220210348FDF797FB042034
:1048A00002F06AFC10BD0000001C025810B5002484
:1048B0001748006820F44060154908600846006801
:1048C0000860012220211248FDF780FB012002F040
:1048D00053FC012210210E48FDF778FB012002F065
:1048E0004BFC07E0601CC4B2FA2C03DDFFF7B4FFF9
:1048F000012010BD20210648FDF760FB0028F1D102
:10490000002210210248FDF761FB0020F1E70000C2
:10491000001C025800B587B000BF3448006840F062
:104920000100324908600846006800F0010001906B
:1049300000BF00BF00BF0846006840F004000860E8
:104940000846006800F00400019000BF00BF00BFEF
:104950000846006840F0800008600846006800F0E3
:104960008000019000BF00BF01200290204803900A
:104970000220049002A91F48FDF71CFA4FF40050D2
:1049800002901D4803900120049002A91B48FDF7E6
:1049900011FA0C200290184803900120049002A9FB
:1049A0001748FDF707FA002202210620FDF7DBFB7E
:1049B0000620FDF7C8FB012202210820FDF7D3FBEA
:1049C0000820FDF7C0FB022211460920FDF7CBFBB2
:1049D0000920FDF7B8FB032202212820FDF7C3FBC5
:1049E0002820FDF7B0FB07B000BD0000E0440258EE
:1049F00000001111000002580000211100080258A7
:104A0000001C025838B50446002000906B461F2257
:104A100000212046FCF785FF08B9009838BD00202A
:104A2000FCE738B505460020009000244FF4004311
:104A3000002211462846FDF72FF908B1012038BDA4
:104A40000F20FCF76FFB6B46002211462846FCF74F
:104A500068FF08B10120F2E7009840F48050009010
:104A6000002211462846009BFDF716F908B10120E7
:104A7000E5E740F6FF70FCF755FB00BF6B460122EF
:104A800000212846FCF74DFF641CB4F5803F01D39C
:104A90000320D4E7009800F020002028EED1002069
:104AA000CDE7000000B587B000BF0D48006840F0BA
:104AB00002000B4908600846006800F002000190FF
:104AC00000BF00BF03200290012003900490032048
:104AD000059002A90348FDF76DF907B000BD00007D
:104AE000E0440258000402581FB501208DF8000070
:104AF0001F48019007208DF8080003208DF80B0057
:104B000001208DF80F0000208DF80E008DF80D00AB
:104B10008DF801008DF80A008DF809008DF80C0061
:104B20006846FDF7C1FA01208DF800001148019098
:104B30000D208DF8080003208DF80B0000208DF863
:104B40000F0001208DF80E0000208DF80D000120CF
:104B50008DF8010000208DF80A008DF809008DF80D
:104B60000C006846FDF7A0FA0420FDF7CBFA1FBD44
:104B7000000004300040043000BFFEE77047000032
:104B800000B587B0154806906FF07F400590144837
:104B9000049014481449002204ABCDE9002102908E
:104BA00005AA06A9114804F08FFB104804F0BEFCCA
:104BB0000E4890F82D00C0F3800030B10B4804F08F
:104BC00014FD0BA002F094F905E0084804F0B4FCD1
:104BD0000DA002F08DF907B000BD0000C0A8011EB5
:104BE000C0A801013D7A00080D7D00087C02002468
:104BF0004E657420696E74657266616365207365C5
:104C0000742075702E0D0A004E657420696E7465EF
:104C100072666163652073657420646F776E2E0D14
:104C20000A00000010B586B0002400BF15480068D7
:104C300040F00200134908600846006800F00200D6
:104C4000009000BF00BF4FF4805001900020029000
:104C5000012003900320049001A90B48FDF7AAF856
:104C6000FFF706FDFFF7CEFD4020FFF78DFDFFF7B4
:104C70001DFE0446FFF7F0FDFF2000F02BF8204654
:104C800006B010BDE04402580004025810B50024DC
:104C9000FFF7B8FD4120FFF777FDFFF707FE002083
:104CA000FFF73CFD0446FFF7D7FD204610BD70B569
:104CB00004460E46FFF7EAFF05461EB90120A04054
:104CC000854303E00120A0402843C5B2284600F0F8
:104CD00001F870BD10B50446FFF794FD4020FFF7C2
:104CE00053FDFFF7E3FD2046FFF74EFDFFF7DEFD26
:104CF000FFF7B2FD42F2107002F03EFA10BD7047AD
:104D00002DE9F04104460E4600275548006800F0A2
:104D10000300032802D10120BDE8F0815048283863
:104D2000006820F080604E4928390860FDF75AF984
:104D3000054606E0FDF756F9401B022801D903207D
:104D4000EAE7474828380068C0F3C0600028F1D17E
:104D500000BF4348006820F47C30216840EA0130FD
:104D60003F490860A088401EC0F30800A168491EA2
:104D70004FF47E4202EA41210843A189491ED20133
:104D800002EA01410843217C491E120202EA016144
:104D9000084333491031086000BF3148001D0068E6
:104DA00020F0C000616908432D49091D08600846CC
:104DB000006820F02000A16908432949091D086006
:104DC0000846006820F0100008602548143000688C
:104DD0004FF6F8718843E16940EAC1002049143177
:104DE00008601F48001D006840F010001C49091DA4
:104DF00008602EB90846006840F40020086012E000
:104E0000012E08D11648001D006840F48010144996
:104E1000091D086007E01248001D006840F40010FA
:104E20000F49091D08600E482838006840F080606E
:104E30000B4928390860FDF7D5F8054606E0FDF76F
:104E4000D1F8401B022801D9032065E7044828381F
:104E50000068C0F3C0600028F1D038465CE700006D
:104E6000284402582DE9F04104460E4600275548D3
:104E7000006800F00300032802D10120BDE8F081A2
:104E800050482838006820F080504E492839086082
:104E9000FDF7A8F8054606E0FDF7A4F8401B022838
:104EA00001D90320EAE7474828380068C0F340707A
:104EB0000028F1D100BF4348006820F07C702188B1
:104EC00040EA01503F490860A088401EC0F3080036
:104ED000A168491E4FF47E4202EA41210843A1899C
:104EE000491ED20102EA01410843217C491E1202F7
:104EF00002EA0161084333491831086000BF3148B4
:104F0000001D006820F44060616908432D49091DB7
:104F100008600846006820F40070A1690843294928
:104F2000091D08600846006820F480700860254864
:104F30001C3000684FF6F8718843E16940EAC1000F
:104F400020491C3108601F48001D006840F4807033
:104F50001C49091D08602EB90846006840F480000D
:104F6000086012E0012E08D11648001D006840F4C8
:104F700000001449091D086007E01248001D006880
:104F800040F080700F49091D08600E4828380068FD
:104F900040F080500B4928390860FDF723F805469A
:104FA00006E0FDF71FF8401B022801D9032065E742
:104FB000044828380068C0F340700028F1D0384613
:104FC0005CE700002844025810B50023234C2360FE
:104FD00000BF00BF00BFBFF34F8F00BF00BF00BFC7
:104FE000231F1868C0F34E3100BFC0F3C90200BFD1
:104FF00043F6E07303EA41134FF0404404EA82743D
:105000002343174C236000BF00BF131EA2F101020F
:10501000EED10B1EA1F10101E7D100BF00BF00BF1F
:10502000BFF34F8F00BF00BF00BF0C4B703B1B682E
:1050300043F48033094C703C236000BF00BF00BFC5
:10504000BFF34F8F00BF00BF00BF00BF00BF00BF56
:10505000BFF36F8F00BF00BF00BF10BD84ED00E045
:1050600060EF00E000BF00BF00BFBFF34F8F00BF85
:1050700000BF00BF00BF00BF00BFBFF36F8F00BF06
:1050800000BF00BF00201449086000BF00BF00BF80
:10509000BFF34F8F00BF00BF00BF00BF00BF00BF06
:1050A000BFF36F8F00BF00BF00BF0C48006840F423
:1050B00000300A49086000BF00BF00BFBFF34F8F38
:1050C00000BF00BF00BF00BF00BF00BFBFF36F8FB6
:1050D00000BF00BF00BF704750EF00E014ED00E0DC
:1050E00030B50A460446202300BF00BF00BFBFF30F
:1050F0004F8F00BF00BF00BF03E00B4D2C601C446E
:10510000D21A002AF9DC00BF00BF00BFBFF34F8FE7
:1051100000BF00BF00BF00BF00BF00BFBFF36F8F65
:1051200000BF00BF00BF30BD5CEF00E0704710B5AE
:10513000FEF745FF10BD000000B5CBB04C2138A8EC
:10514000FBF739F9202130A8FBF735F9BC2101A87C
:10515000FBF731F90220FDF757F800BF002000905F
:105160003148006840F440402F4908600846006814
:1051700000F4404000902D48006820F00100401CE1
:105180002A4908600846006800F00100009000BF4E
:1051900000BF00BF2448006800F40050B0F5005F75
:1051A000F8D101203890000439900220419002216A
:1051B00038A881620521C162A021016302214163F7
:1051C0008163C16308210164002141648164FEF7A9
:1051D00019FB08B100BFFEE73F203090032031905B
:1051E0000020329008203390402034903590000108
:1051F000369040203790042130A8FEF731F8042182
:1052000030A8FEF72DF808B100BFFEE74FF40040CC
:10521000019040031C9001A8FDF780FA08B100BF7F
:10522000FEE74BB000BD0000184802582C0400589F
:105230002448006840F47000224908602248006851
:1052400040F001002049086000201F49103108602B
:105250001D4800681D4908401B49086000201A4984
:1052600018310860091D0860091D086016492831B9
:105270000860091D0860091D0860091D0860091DF6
:105280000860091D0860091D0860091D08600E48B6
:10529000006820F480200C49086000200A49603131
:1052A00008600B4800686FF30F00B0F1005F02D296
:1052B0000120084908604FF0006002498039086009
:1052C0007047000088ED00E0004402587FEDF6EAE8
:1052D0000010005C0881005108B500BF1448006848
:1052E00040F00200124908600846006800F0020021
:1052F000009000BF00BF0F480F49086040F2E73040
:10530000486000210C48816040F2CF71C1600021EB
:105310000161FEF75BFE002211461D20FCF723FF12
:105320001D20FCF710FF0448FEF76CFE08BD0000CE
:10533000E8440258000400403C02002410B5024832
:10534000FEF77DFE10BD00003C02002410B502688F
:10535000294B98420ED0B0F1804F0BD0274B98428A
:1053600008D0274B984205D0264B984202D0264BB6
:10537000984203D122F070024B681A431E4B9842A8
:1053800017D0B0F1804F14D01C4B984211D01C4B59
:1053900098420ED01B4B98420BD01B4B984208D022
:1053A0001A4B984205D01A4B984202D0194B98429A
:1053B00003D122F44072CB681A4322F080034C6977
:1053C00043EA040202608B68C3620B6883620A4B83
:1053D00098420BD00C4B984208D00C4B984205D009
:1053E0000B4B984202D00B4B984201D10B690363DF
:1053F0000123436110BD0000000001400004004093
:1054000000080040000C0040000401400040014042
:10541000004401400048014010B5044616481749B1
:1054200008600846446000218160C16001610C2170
:105430004161FEF7FDFF012200212520FCF793FECC
:105440002520FCF780FE0D480068006840F0200031
:105450000A490968086009480068006840F000408F
:1054600006490968086005480068006840F02000A7
:1054700002490968086010BD00100140B001002415
:1054800090F8281001F0010139B10168496821F450
:105490000031C26A11430268516090F8281001F08F
:1054A0000201022907D10168496821F48031026BA9
:1054B00011430268516090F8281001F0040104299A
:1054C00007D10168496821F48021426B11430268C9
:1054D000516090F8281001F00801082907D10168EF
:1054E000496821F40041826B11430268516090F8D1
:1054F000281001F01001102907D10168896821F4F2
:105500008051C26B11430268916090F8281001F03D
:105510002001202907D10168896821F40051026C1B
:1055200011430268916090F8281001F04001402971
:1055300013D10168496821F48011426C114302685B
:105540005160416CB1F5801F07D10168496821F4B1
:10555000C001826C11430268516090F8281001F07C
:105560008001802907D10168496821F40021C26CBB
:10557000114302685160704738B504460020C4F8F2
:105580008800FCF72FFD05462068006800F0080041
:1055900008280CD16FF07E402B4600224FF40011FA
:1055A0000090204601F0CCFB08B1032038BD2068F4
:1055B000006800F0040004280CD16FF07E402B46F8
:1055C00000224FF480010090204601F0B9FB08B1A1
:1055D0000320EBE72020C4F88000C4F8840000BF5B
:1055E000002084F87C0000BF00BFDFE770B50546EF
:1055F000AC6B0020A4F85E00A4F856002046FEF72D
:105600000FFE70BD0168096821F490710268116095
:1056100001688968044A1140026891602021C0F83D
:1056200084100021C1667047FEFFFFEF10B50446ED
:105630002068006820F04000216808602020C4F83D
:105640008000002020672046FEF7E4FF10BD000028
:105650002DE9F04F89B004464FF000090020079073
:105660008346F9492068884200D100E000BF2169E3
:10567000A068084361690843E16940EA010A606E75
:1056800040EA0A0A20680068F049084040EA0A0037
:10569000216808602068406820F44050E1680843B1
:1056A00021684860D4F818A0E7492068884202D0F1
:1056B000206A40EA0A0A20688068E549084040EA12
:1056C0000A00216888602068C06A20F00F00616AC3
:1056D00008432168C86200BFDE492068884220D1A3
:1056E000DD48006800F03800182811D005DC48B10A
:1056F000082809D0102811D108E020280AD028282D
:105700000CD109E001250BE0042509E0082507E09C
:10571000102505E0202503E0402501E0802500BF9D
:10572000F8E0CE492068884219D1CB48006800F0E3
:105730000700062810D2DFE800F0030507090B0D6B
:1057400000250BE0042509E0082507E0102505E009
:10575000202503E0402501E0802500BFDAE0C049B4
:105760002068884219D1BC48006800F0070006286C
:1057700010D2DFE800F0030507090B0D00250BE050
:10578000042509E0082507E0102505E0202503E0B1
:10579000402501E0802500BFBCE0B2492068884276
:1057A00019D1AD48006800F00700062810D2DFE8E4
:1057B00000F0030507090B0D00250BE0042509E0A7
:1057C000082507E0102505E0202503E0402501E03D
:1057D000802500BF9EE0A4492068884219D19E48D8
:1057E000006800F00700062810D2DFE800F003058B
:1057F00007090B0D00250BE0042509E0082507E04B
:10580000102505E0202503E0402501E0802500BFAC
:1058100080E096492068884220D18F48006800F0D7
:105820003800182811D005DC48B1082809D0102804
:1058300011D108E020280AD028280CD109E0012540
:105840000BE0042509E0082507E0102505E02025E8
:1058500003E0402501E0802500BF5BE0844920682B
:10586000884219D17C48006800F00700062810D251
:10587000DFE800F0030507090B0D00250BE0042508
:1058800009E0082507E0102505E0202503E0402574
:1058900001E0802500BF3DE076492068884219D1AB
:1058A0006D48006800F00700062810D2DFE800F01D
:1058B000030507090B0D00250BE0042509E0082569
:1058C00007E0102505E0202503E0402501E08025C4
:1058D00000BF1FE05C49206888421AD15E48001D65
:1058E000006800F00700062810D2DFE800F003058A
:1058F00007090B0D02250BE0042509E0082507E048
:10590000102505E0202503E0402501E0802500BFAB
:1059100000E0802500BF4C492068884271D1102DDD
:1059200070D006DC022D09D0042D49D0082D6AD193
:10593000A6E0202D68D0402DF9D1B3E1FCF7ACFCF6
:10594000616A09B9012138E0616A012901D10221A6
:1059500033E0616A022901D104212EE0616A032942
:1059600001D1062129E0616A042901D1082124E03E
:10597000616A052901D10A211FE0616A062901D166
:105980000C211AE0616A072901D1102115E0616A32
:10599000082901D1202110E0616A092901D14021A3
:1059A0000BE0616A0A2901D1802106E0616A0B29B6
:1059B00002D14FF4807100E00121B0FBF1FBB6E1B0
:1059C00004A8FCF77BFC0598616A09B9012154E041
:1059D000616A012901D102214FE0616A022901D1E6
:1059E00004214AE0616A032901D1062145E0616A88
:1059F000042901D1082140E0616A052905D10A2165
:105A00003BE0FDE380E08FE10BE1616A062901D113
:105A10000C2132E0616A072901D110212DE0616A71
:105A2000082901D1202128E0616A092901D14021FA
:105A300023E0616A0A2901D180211EE0616A0B29F5
:105A40001AD14FF4807118E0000C0058F369FFCFB1
:105A5000FFF4FF110010014054440258004400407C
:105A600000480040004C004000500040001401403D
:105A700000780040007C00400121B0FBF1FB56E1C2
:105A800001A8FCF733FD0298616A09B9012138E0E9
:105A9000616A012901D1022133E0616A022901D141
:105AA00004212EE0616A032901D1062129E0616AFF
:105AB000042901D1082124E0616A052901D10A21C4
:105AC0001FE0616A062901D10C211AE0616A0729E9
:105AD00001D1102115E0616A082901D1202110E0CF
